{"contracts/AccessControl.sol":{"AccessControl":{"abi":[{"inputs":[],"stateMutability":"nonpayable","type":"constructor"},{"anonymous":false,"inputs":[{"indexed":true,"internalType":"address","name":"account","type":"address"},{"indexed":false,"internalType":"enum AccessControl.Role","name":"role","type":"uint8"}],"name":"RoleGranted","type":"event"},{"anonymous":false,"inputs":[{"indexed":true,"internalType":"address","name":"account","type":"address"},{"indexed":false,"internalType":"enum AccessControl.Role","name":"role","type":"uint8"}],"name":"RoleRevoked","type":"event"},{"inputs":[{"internalType":"address","name":"account","type":"address"}],"name":"getRole","outputs":[{"internalType":"enum AccessControl.Role","name":"","type":"uint8"}],"stateMutability":"view","type":"function"},{"inputs":[{"internalType":"address","name":"account","type":"address"},{"internalType":"enum AccessControl.Role","name":"role","type":"uint8"}],"name":"grantRole","outputs":[],"stateMutability":"nonpayable","type":"function"},{"inputs":[{"internalType":"address","name":"account","type":"address"},{"internalType":"enum AccessControl.Role","name":"role","type":"uint8"}],"name":"hasRole","outputs":[{"internalType":"bool","name":"","type":"bool"}],"stateMutability":"view","type":"function"},{"inputs":[{"internalType":"address","name":"account","type":"address"}],"name":"revokeRole","outputs":[],"stateMutability":"nonpayable","type":"function"},{"inputs":[{"internalType":"enum AccessControl.Role","name":"","type":"uint8"}],"name":"roleExists","outputs":[{"internalType":"bool","name":"","type":"bool"}],"stateMutability":"view","type":"function"},{"inputs":[{"internalType":"address","name":"","type":"address"}],"name":"roles","outputs":[{"internalType":"enum AccessControl.Role","name":"","type":"uint8"}],"stateMutability":"view","type":"function"}],"evm":{"bytecode":{"linkReferences":{},"object":"608060405234801561001057600080fd5b50336000818152602081815260408083208054600560ff199182168117909255938190526001928390527fe2689cd4a84e23ad2f564004f1c9013e9589d260bde6380aba3ca7e09e4df40c805490941690921790925590517faa259565575c834bc07e74dca784b4071676133ac78513b431afb6ee7edae12191610093916100a0565b60405180910390a26100c8565b60208101600683106100c257634e487b7160e01b600052602160045260246000fd5b91905290565b610610806100d76000396000f3fe608060405234801561001057600080fd5b50600436106100625760003560e01c80633e84023614610067578063442767331461007c578063765b0fa0146100be57806380e52e3f146100f157806395a8c58d146101045780639937464214610117575b600080fd5b61007a6100753660046104a3565b61013a565b005b6100a861008a3660046104d6565b6001600160a01b031660009081526020819052604090205460ff1690565b6040516100b5919061050e565b60405180910390f35b6100e16100cc366004610536565b60016020526000908152604090205460ff1681565b60405190151581526020016100b5565b61007a6100ff3660046104d6565b6102e7565b6100e16101123660046104a3565b61042f565b6100a86101253660046104d6565b60006020819052908152604090205460ff1681565b60053360009081526020819052604090205460ff166005811115610160576101606104f8565b146101865760405162461bcd60e51b815260040161017d90610551565b60405180910390fd5b6001600160a01b0382166101ac5760405162461bcd60e51b815260040161017d90610594565b60008160058111156101c0576101c06104f8565b0361021b5760405162461bcd60e51b815260206004820152602560248201527f416363657373436f6e74726f6c3a2063616e6e6f74206772616e74204e4f4e4560448201526420726f6c6560d81b606482015260840161017d565b6001600160a01b0382166000908152602081905260409020805482919060ff19166001836005811115610250576102506104f8565b0217905550600180600083600581111561026c5761026c6104f8565b600581111561027d5761027d6104f8565b815260200190815260200160002060006101000a81548160ff021916908315150217905550816001600160a01b03167faa259565575c834bc07e74dca784b4071676133ac78513b431afb6ee7edae121826040516102db919061050e565b60405180910390a25050565b60053360009081526020819052604090205460ff16600581111561030d5761030d6104f8565b1461032a5760405162461bcd60e51b815260040161017d90610551565b6001600160a01b0381166103505760405162461bcd60e51b815260040161017d90610594565b6001600160a01b03811660009081526020819052604081205460ff16600581111561037d5761037d6104f8565b036103d55760405162461bcd60e51b815260206004820152602260248201527f416363657373436f6e74726f6c3a206163636f756e7420686173206e6f20726f6044820152616c6560f01b606482015260840161017d565b6001600160a01b03811660008181526020819052604090819020805460ff198116909155905160ff90911691907f34a1009b84e077aee5bc8197faf7105e54f9ba6879e2a51a716e4156ea9ad769906102db90849061050e565b6000816005811115610443576104436104f8565b6001600160a01b03841660009081526020819052604090205460ff166005811115610470576104706104f8565b149392505050565b80356001600160a01b038116811461048f57600080fd5b919050565b80356006811061048f57600080fd5b600080604083850312156104b657600080fd5b6104bf83610478565b91506104cd60208401610494565b90509250929050565b6000602082840312156104e857600080fd5b6104f182610478565b9392505050565b634e487b7160e01b600052602160045260246000fd5b602081016006831061053057634e487b7160e01b600052602160045260246000fd5b91905290565b60006020828403121561054857600080fd5b6104f182610494565b60208082526023908201527f416363657373436f6e74726f6c3a206163636f756e74206973206e6f7420616460408201526236b4b760e91b606082015260800190565b60208082526026908201527f416363657373436f6e74726f6c3a206163636f756e74206973207a65726f206160408201526564647265737360d01b60608201526080019056fea26469706673582212202235927dff2a7ae2ebaaba56c00bc4cc9270a55a73d7e51eb32c1474ddba73da64736f6c63430008130033","opcodes":"PUSH1 0x80 PUSH1 0x40 MSTORE CALLVALUE DUP1 ISZERO PUSH2 0x10 JUMPI PUSH1 0x0 DUP1 REVERT JUMPDEST POP CALLER PUSH1 0x0 DUP2 DUP2 MSTORE PUSH1 0x20 DUP2 DUP2 MSTORE PUSH1 0x40 DUP1 DUP4 KECCAK256 DUP1 SLOAD PUSH1 0x5 PUSH1 0xFF NOT SWAP2 DUP3 AND DUP2 OR SWAP1 SWAP3 SSTORE SWAP4 DUP2 SWAP1 MSTORE PUSH1 0x1 SWAP3 DUP4 SWAP1 MSTORE PUSH32 0xE2689CD4A84E23AD2F564004F1C9013E9589D260BDE6380ABA3CA7E09E4DF40C DUP1 SLOAD SWAP1 SWAP5 AND SWAP1 SWAP3 OR SWAP1 SWAP3 SSTORE SWAP1 MLOAD PUSH32 0xAA259565575C834BC07E74DCA784B4071676133AC78513B431AFB6EE7EDAE121 SWAP2 PUSH2 0x93 SWAP2 PUSH2 0xA0 JUMP JUMPDEST PUSH1 0x40 MLOAD DUP1 SWAP2 SUB SWAP1 LOG2 PUSH2 0xC8 JUMP JUMPDEST PUSH1 0x20 DUP2 ADD PUSH1 0x6 DUP4 LT PUSH2 0xC2 JUMPI PUSH4 0x4E487B71 PUSH1 0xE0 SHL PUSH1 0x0 MSTORE PUSH1 0x21 PUSH1 0x4 MSTORE PUSH1 0x24 PUSH1 0x0 REVERT JUMPDEST SWAP2 SWAP1 MSTORE SWAP1 JUMP JUMPDEST PUSH2 0x610 DUP1 PUSH2 0xD7 PUSH1 0x0 CODECOPY PUSH1 0x0 RETURN INVALID PUSH1 0x80 PUSH1 0x40 MSTORE CALLVALUE DUP1 ISZERO PUSH2 0x10 JUMPI PUSH1 0x0 DUP1 REVERT JUMPDEST POP PUSH1 0x4 CALLDATASIZE LT PUSH2 0x62 JUMPI PUSH1 0x0 CALLDATALOAD PUSH1 0xE0 SHR DUP1 PUSH4 0x3E840236 EQ PUSH2 0x67 JUMPI DUP1 PUSH4 0x44276733 EQ PUSH2 0x7C JUMPI DUP1 PUSH4 0x765B0FA0 EQ PUSH2 0xBE JUMPI DUP1 PUSH4 0x80E52E3F EQ PUSH2 0xF1 JUMPI DUP1 PUSH4 0x95A8C58D EQ PUSH2 0x104 JUMPI DUP1 PUSH4 0x99374642 EQ PUSH2 0x117 JUMPI JUMPDEST PUSH1 0x0 DUP1 REVERT JUMPDEST PUSH2 0x7A PUSH2 0x75 CALLDATASIZE PUSH1 0x4 PUSH2 0x4A3 JUMP JUMPDEST PUSH2 0x13A JUMP JUMPDEST STOP JUMPDEST PUSH2 0xA8 PUSH2 0x8A CALLDATASIZE PUSH1 0x4 PUSH2 0x4D6 JUMP JUMPDEST PUSH1 0x1 PUSH1 0x1 PUSH1 0xA0 SHL SUB AND PUSH1 0x0 SWAP1 DUP2 MSTORE PUSH1 0x20 DUP2 SWAP1 MSTORE PUSH1 0x40 SWAP1 KECCAK256 SLOAD PUSH1 0xFF AND SWAP1 JUMP JUMPDEST PUSH1 0x40 MLOAD PUSH2 0xB5 SWAP2 SWAP1 PUSH2 0x50E JUMP JUMPDEST PUSH1 0x40 MLOAD DUP1 SWAP2 SUB SWAP1 RETURN JUMPDEST PUSH2 0xE1 PUSH2 0xCC CALLDATASIZE PUSH1 0x4 PUSH2 0x536 JUMP JUMPDEST PUSH1 0x1 PUSH1 0x20 MSTORE PUSH1 0x0 SWAP1 DUP2 MSTORE PUSH1 0x40 SWAP1 KECCAK256 SLOAD PUSH1 0xFF AND DUP2 JUMP JUMPDEST PUSH1 0x40 MLOAD SWAP1 ISZERO ISZERO DUP2 MSTORE PUSH1 0x20 ADD PUSH2 0xB5 JUMP JUMPDEST PUSH2 0x7A PUSH2 0xFF CALLDATASIZE PUSH1 0x4 PUSH2 0x4D6 JUMP JUMPDEST PUSH2 0x2E7 JUMP JUMPDEST PUSH2 0xE1 PUSH2 0x112 CALLDATASIZE PUSH1 0x4 PUSH2 0x4A3 JUMP JUMPDEST PUSH2 0x42F JUMP JUMPDEST PUSH2 0xA8 PUSH2 0x125 CALLDATASIZE PUSH1 0x4 PUSH2 0x4D6 JUMP JUMPDEST PUSH1 0x0 PUSH1 0x20 DUP2 SWAP1 MSTORE SWAP1 DUP2 MSTORE PUSH1 0x40 SWAP1 KECCAK256 SLOAD PUSH1 0xFF AND DUP2 JUMP JUMPDEST PUSH1 0x5 CALLER PUSH1 0x0 SWAP1 DUP2 MSTORE PUSH1 0x20 DUP2 SWAP1 MSTORE PUSH1 0x40 SWAP1 KECCAK256 SLOAD PUSH1 0xFF AND PUSH1 0x5 DUP2 GT ISZERO PUSH2 0x160 JUMPI PUSH2 0x160 PUSH2 0x4F8 JUMP JUMPDEST EQ PUSH2 0x186 JUMPI PUSH1 0x40 MLOAD PUSH3 0x461BCD PUSH1 0xE5 SHL DUP2 MSTORE PUSH1 0x4 ADD PUSH2 0x17D SWAP1 PUSH2 0x551 JUMP JUMPDEST PUSH1 0x40 MLOAD DUP1 SWAP2 SUB SWAP1 REVERT JUMPDEST PUSH1 0x1 PUSH1 0x1 PUSH1 0xA0 SHL SUB DUP3 AND PUSH2 0x1AC JUMPI PUSH1 0x40 MLOAD PUSH3 0x461BCD PUSH1 0xE5 SHL DUP2 MSTORE PUSH1 0x4 ADD PUSH2 0x17D SWAP1 PUSH2 0x594 JUMP JUMPDEST PUSH1 0x0 DUP2 PUSH1 0x5 DUP2 GT ISZERO PUSH2 0x1C0 JUMPI PUSH2 0x1C0 PUSH2 0x4F8 JUMP JUMPDEST SUB PUSH2 0x21B JUMPI PUSH1 0x40 MLOAD PUSH3 0x461BCD PUSH1 0xE5 SHL DUP2 MSTORE PUSH1 0x20 PUSH1 0x4 DUP3 ADD MSTORE PUSH1 0x25 PUSH1 0x24 DUP3 ADD MSTORE PUSH32 0x416363657373436F6E74726F6C3A2063616E6E6F74206772616E74204E4F4E45 PUSH1 0x44 DUP3 ADD MSTORE PUSH5 0x20726F6C65 PUSH1 0xD8 SHL PUSH1 0x64 DUP3 ADD MSTORE PUSH1 0x84 ADD PUSH2 0x17D JUMP JUMPDEST PUSH1 0x1 PUSH1 0x1 PUSH1 0xA0 SHL SUB DUP3 AND PUSH1 0x0 SWAP1 DUP2 MSTORE PUSH1 0x20 DUP2 SWAP1 MSTORE PUSH1 0x40 SWAP1 KECCAK256 DUP1 SLOAD DUP3 SWAP2 SWAP1 PUSH1 0xFF NOT AND PUSH1 0x1 DUP4 PUSH1 0x5 DUP2 GT ISZERO PUSH2 0x250 JUMPI PUSH2 0x250 PUSH2 0x4F8 JUMP JUMPDEST MUL OR SWAP1 SSTORE POP PUSH1 0x1 DUP1 PUSH1 0x0 DUP4 PUSH1 0x5 DUP2 GT ISZERO PUSH2 0x26C JUMPI PUSH2 0x26C PUSH2 0x4F8 JUMP JUMPDEST PUSH1 0x5 DUP2 GT ISZERO PUSH2 0x27D JUMPI PUSH2 0x27D PUSH2 0x4F8 JUMP JUMPDEST DUP2 MSTORE PUSH1 0x20 ADD SWAP1 DUP2 MSTORE PUSH1 0x20 ADD PUSH1 0x0 KECCAK256 PUSH1 0x0 PUSH2 0x100 EXP DUP2 SLOAD DUP2 PUSH1 0xFF MUL NOT AND SWAP1 DUP4 ISZERO ISZERO MUL OR SWAP1 SSTORE POP DUP2 PUSH1 0x1 PUSH1 0x1 PUSH1 0xA0 SHL SUB AND PUSH32 0xAA259565575C834BC07E74DCA784B4071676133AC78513B431AFB6EE7EDAE121 DUP3 PUSH1 0x40 MLOAD PUSH2 0x2DB SWAP2 SWAP1 PUSH2 0x50E JUMP JUMPDEST PUSH1 0x40 MLOAD DUP1 SWAP2 SUB SWAP1 LOG2 POP POP JUMP JUMPDEST PUSH1 0x5 CALLER PUSH1 0x0 SWAP1 DUP2 MSTORE PUSH1 0x20 DUP2 SWAP1 MSTORE PUSH1 0x40 SWAP1 KECCAK256 SLOAD PUSH1 0xFF AND PUSH1 0x5 DUP2 GT ISZERO PUSH2 0x30D JUMPI PUSH2 0x30D PUSH2 0x4F8 JUMP JUMPDEST EQ PUSH2 0x32A JUMPI PUSH1 0x40 MLOAD PUSH3 0x461BCD PUSH1 0xE5 SHL DUP2 MSTORE PUSH1 0x4 ADD PUSH2 0x17D SWAP1 PUSH2 0x551 JUMP JUMPDEST PUSH1 0x1 PUSH1 0x1 PUSH1 0xA0 SHL SUB DUP2 AND PUSH2 0x350 JUMPI PUSH1 0x40 MLOAD PUSH3 0x461BCD PUSH1 0xE5 SHL DUP2 MSTORE PUSH1 0x4 ADD PUSH2 0x17D SWAP1 PUSH2 0x594 JUMP JUMPDEST PUSH1 0x1 PUSH1 0x1 PUSH1 0xA0 SHL SUB DUP2 AND PUSH1 0x0 SWAP1 DUP2 MSTORE PUSH1 0x20 DUP2 SWAP1 MSTORE PUSH1 0x40 DUP2 KECCAK256 SLOAD PUSH1 0xFF AND PUSH1 0x5 DUP2 GT ISZERO PUSH2 0x37D JUMPI PUSH2 0x37D PUSH2 0x4F8 JUMP JUMPDEST SUB PUSH2 0x3D5 JUMPI PUSH1 0x40 MLOAD PUSH3 0x461BCD PUSH1 0xE5 SHL DUP2 MSTORE PUSH1 0x20 PUSH1 0x4 DUP3 ADD MSTORE PUSH1 0x22 PUSH1 0x24 DUP3 ADD MSTORE PUSH32 0x416363657373436F6E74726F6C3A206163636F756E7420686173206E6F20726F PUSH1 0x44 DUP3 ADD MSTORE PUSH2 0x6C65 PUSH1 0xF0 SHL PUSH1 0x64 DUP3 ADD MSTORE PUSH1 0x84 ADD PUSH2 0x17D JUMP JUMPDEST PUSH1 0x1 PUSH1 0x1 PUSH1 0xA0 SHL SUB DUP2 AND PUSH1 0x0 DUP2 DUP2 MSTORE PUSH1 0x20 DUP2 SWAP1 MSTORE PUSH1 0x40 SWAP1 DUP2 SWAP1 KECCAK256 DUP1 SLOAD PUSH1 0xFF NOT DUP2 AND SWAP1 SWAP2 SSTORE SWAP1 MLOAD PUSH1 0xFF SWAP1 SWAP2 AND SWAP2 SWAP1 PUSH32 0x34A1009B84E077AEE5BC8197FAF7105E54F9BA6879E2A51A716E4156EA9AD769 SWAP1 PUSH2 0x2DB SWAP1 DUP5 SWAP1 PUSH2 0x50E JUMP JUMPDEST PUSH1 0x0 DUP2 PUSH1 0x5 DUP2 GT ISZERO PUSH2 0x443 JUMPI PUSH2 0x443 PUSH2 0x4F8 JUMP JUMPDEST PUSH1 0x1 PUSH1 0x1 PUSH1 0xA0 SHL SUB DUP5 AND PUSH1 0x0 SWAP1 DUP2 MSTORE PUSH1 0x20 DUP2 SWAP1 MSTORE PUSH1 0x40 SWAP1 KECCAK256 SLOAD PUSH1 0xFF AND PUSH1 0x5 DUP2 GT ISZERO PUSH2 0x470 JUMPI PUSH2 0x470 PUSH2 0x4F8 JUMP JUMPDEST EQ SWAP4 SWAP3 POP POP POP JUMP JUMPDEST DUP1 CALLDATALOAD PUSH1 0x1 PUSH1 0x1 PUSH1 0xA0 SHL SUB DUP2 AND DUP2 EQ PUSH2 0x48F JUMPI PUSH1 0x0 DUP1 REVERT JUMPDEST SWAP2 SWAP1 POP JUMP JUMPDEST DUP1 CALLDATALOAD PUSH1 0x6 DUP2 LT PUSH2 0x48F JUMPI PUSH1 0x0 DUP1 REVERT JUMPDEST PUSH1 0x0 DUP1 PUSH1 0x40 DUP4 DUP6 SUB SLT ISZERO PUSH2 0x4B6 JUMPI PUSH1 0x0 DUP1 REVERT JUMPDEST PUSH2 0x4BF DUP4 PUSH2 0x478 JUMP JUMPDEST SWAP2 POP PUSH2 0x4CD PUSH1 0x20 DUP5 ADD PUSH2 0x494 JUMP JUMPDEST SWAP1 POP SWAP3 POP SWAP3 SWAP1 POP JUMP JUMPDEST PUSH1 0x0 PUSH1 0x20 DUP3 DUP5 SUB SLT ISZERO PUSH2 0x4E8 JUMPI PUSH1 0x0 DUP1 REVERT JUMPDEST PUSH2 0x4F1 DUP3 PUSH2 0x478 JUMP JUMPDEST SWAP4 SWAP3 POP POP POP JUMP JUMPDEST PUSH4 0x4E487B71 PUSH1 0xE0 SHL PUSH1 0x0 MSTORE PUSH1 0x21 PUSH1 0x4 MSTORE PUSH1 0x24 PUSH1 0x0 REVERT JUMPDEST PUSH1 0x20 DUP2 ADD PUSH1 0x6 DUP4 LT PUSH2 0x530 JUMPI PUSH4 0x4E487B71 PUSH1 0xE0 SHL PUSH1 0x0 MSTORE PUSH1 0x21 PUSH1 0x4 MSTORE PUSH1 0x24 PUSH1 0x0 REVERT JUMPDEST SWAP2 SWAP1 MSTORE SWAP1 JUMP JUMPDEST PUSH1 0x0 PUSH1 0x20 DUP3 DUP5 SUB SLT ISZERO PUSH2 0x548 JUMPI PUSH1 0x0 DUP1 REVERT JUMPDEST PUSH2 0x4F1 DUP3 PUSH2 0x494 JUMP JUMPDEST PUSH1 0x20 DUP1 DUP3 MSTORE PUSH1 0x23 SWAP1 DUP3 ADD MSTORE PUSH32 0x416363657373436F6E74726F6C3A206163636F756E74206973206E6F74206164 PUSH1 0x40 DUP3 ADD MSTORE PUSH3 0x36B4B7 PUSH1 0xE9 SHL PUSH1 0x60 DUP3 ADD MSTORE PUSH1 0x80 ADD SWAP1 JUMP JUMPDEST PUSH1 0x20 DUP1 DUP3 MSTORE PUSH1 0x26 SWAP1 DUP3 ADD MSTORE PUSH32 0x416363657373436F6E74726F6C3A206163636F756E74206973207A65726F2061 PUSH1 0x40 DUP3 ADD MSTORE PUSH6 0x646472657373 PUSH1 0xD0 SHL PUSH1 0x60 DUP3 ADD MSTORE PUSH1 0x80 ADD SWAP1 JUMP INVALID LOG2 PUSH5 0x6970667358 0x22 SLT KECCAK256 0x22 CALLDATALOAD SWAP3 PUSH30 0xFF2A7AE2EBAABA56C00BC4CC9270A55A73D7E51EB32C1474DDBA73DA6473 PUSH16 0x6C634300081300330000000000000000 "},"methodIdentifiers":{"getRole(address)":"44276733","grantRole(address,uint8)":"3e840236","hasRole(address,uint8)":"95a8c58d","revokeRole(address)":"80e52e3f","roleExists(uint8)":"765b0fa0","roles(address)":"99374642"}}}}}