{
  "_format": "hh-sol-artifact-1",
  "contractName": "MedicineSupplyChain",
  "sourceName": "contracts/MedicineSupplyChain.sol",
  "abi": [
    {
      "inputs": [
        {
          "internalType": "address",
          "name": "_accessControlAddress",
          "type": "address"
        }
      ],
      "stateMutability": "nonpayable",
      "type": "constructor"
    },
    {
      "anonymous": false,
      "inputs": [
        {
          "indexed": true,
          "internalType": "uint256",
          "name": "medicineId",
          "type": "uint256"
        },
        {
          "indexed": false,
          "internalType": "string",
          "name": "location",
          "type": "string"
        },
        {
          "indexed": false,
          "internalType": "uint256",
          "name": "timestamp",
          "type": "uint256"
        }
      ],
      "name": "LocationUpdated",
      "type": "event"
    },
    {
      "anonymous": false,
      "inputs": [
        {
          "indexed": true,
          "internalType": "uint256",
          "name": "medicineId",
          "type": "uint256"
        },
        {
          "indexed": false,
          "internalType": "string",
          "name": "name",
          "type": "string"
        },
        {
          "indexed": false,
          "internalType": "string",
          "name": "batchNumber",
          "type": "string"
        },
        {
          "indexed": true,
          "internalType": "address",
          "name": "manufacturer",
          "type": "address"
        }
      ],
      "name": "MedicineManufactured",
      "type": "event"
    },
    {
      "anonymous": false,
      "inputs": [
        {
          "indexed": true,
          "internalType": "uint256",
          "name": "medicineId",
          "type": "uint256"
        },
        {
          "indexed": false,
          "internalType": "enum MedicineSupplyChain.MedicineStatus",
          "name": "oldStatus",
          "type": "uint8"
        },
        {
          "indexed": false,
          "internalType": "enum MedicineSupplyChain.MedicineStatus",
          "name": "newStatus",
          "type": "uint8"
        }
      ],
      "name": "MedicineStatusChanged",
      "type": "event"
    },
    {
      "anonymous": false,
      "inputs": [
        {
          "indexed": true,
          "internalType": "uint256",
          "name": "medicineId",
          "type": "uint256"
        },
        {
          "indexed": true,
          "internalType": "address",
          "name": "from",
          "type": "address"
        },
        {
          "indexed": true,
          "internalType": "address",
          "name": "to",
          "type": "address"
        },
        {
          "indexed": false,
          "internalType": "enum MedicineSupplyChain.MedicineStatus",
          "name": "newStatus",
          "type": "uint8"
        }
      ],
      "name": "MedicineTransferred",
      "type": "event"
    },
    {
      "anonymous": false,
      "inputs": [
        {
          "indexed": true,
          "internalType": "uint256",
          "name": "medicineId",
          "type": "uint256"
        },
        {
          "indexed": false,
          "internalType": "string",
          "name": "temperature",
          "type": "string"
        },
        {
          "indexed": false,
          "internalType": "uint256",
          "name": "timestamp",
          "type": "uint256"
        }
      ],
      "name": "TemperatureUpdated",
      "type": "event"
    },
    {
      "inputs": [],
      "name": "accessControl",
      "outputs": [
        {
          "internalType": "contract AccessControl",
          "name": "",
          "type": "address"
        }
      ],
      "stateMutability": "view",
      "type": "function"
    },
    {
      "inputs": [
        {
          "internalType": "string",
          "name": "",
          "type": "string"
        },
        {
          "internalType": "uint256",
          "name": "",
          "type": "uint256"
        }
      ],
      "name": "batchToMedicines",
      "outputs": [
        {
          "internalType": "uint256",
          "name": "",
          "type": "uint256"
        }
      ],
      "stateMutability": "view",
      "type": "function"
    },
    {
      "inputs": [
        {
          "internalType": "uint256",
          "name": "medicineId",
          "type": "uint256"
        }
      ],
      "name": "getLocationHistory",
      "outputs": [
        {
          "internalType": "string[]",
          "name": "locations",
          "type": "string[]"
        },
        {
          "internalType": "uint256[]",
          "name": "timestamps",
          "type": "uint256[]"
        }
      ],
      "stateMutability": "view",
      "type": "function"
    },
    {
      "inputs": [
        {
          "internalType": "uint256",
          "name": "medicineId",
          "type": "uint256"
        }
      ],
      "name": "getMedicine",
      "outputs": [
        {
          "components": [
            {
              "internalType": "uint256",
              "name": "id",
              "type": "uint256"
            },
            {
              "internalType": "string",
              "name": "name",
              "type": "string"
            },
            {
              "internalType": "string",
              "name": "batchNumber",
              "type": "string"
            },
            {
              "internalType": "uint256",
              "name": "manufactureDate",
              "type": "uint256"
            },
            {
              "internalType": "uint256",
              "name": "expiryDate",
              "type": "uint256"
            },
            {
              "internalType": "address",
              "name": "manufacturer",
              "type": "address"
            },
            {
              "internalType": "address",
              "name": "currentOwner",
              "type": "address"
            },
            {
              "internalType": "enum MedicineSupplyChain.MedicineStatus",
              "name": "status",
              "type": "uint8"
            },
            {
              "internalType": "uint256",
              "name": "temperatureThreshold",
              "type": "uint256"
            },
            {
              "internalType": "bool",
              "name": "temperatureSensitive",
              "type": "bool"
            },
            {
              "internalType": "string[]",
              "name": "temperatureReadings",
              "type": "string[]"
            },
            {
              "internalType": "uint256[]",
              "name": "temperatureTimestamps",
              "type": "uint256[]"
            },
            {
              "internalType": "string[]",
              "name": "locationHistory",
              "type": "string[]"
            },
            {
              "internalType": "uint256[]",
              "name": "locationTimestamps",
              "type": "uint256[]"
            },
            {
              "internalType": "bool",
              "name": "isActive",
              "type": "bool"
            }
          ],
          "internalType": "struct MedicineSupplyChain.Medicine",
          "name": "",
          "type": "tuple"
        }
      ],
      "stateMutability": "view",
      "type": "function"
    },
    {
      "inputs": [
        {
          "internalType": "string",
          "name": "batchNumber",
          "type": "string"
        }
      ],
      "name": "getMedicinesByBatch",
      "outputs": [
        {
          "internalType": "uint256[]",
          "name": "",
          "type": "uint256[]"
        }
      ],
      "stateMutability": "view",
      "type": "function"
    },
    {
      "inputs": [
        {
          "internalType": "uint256",
          "name": "medicineId",
          "type": "uint256"
        }
      ],
      "name": "getTemperatureHistory",
      "outputs": [
        {
          "internalType": "string[]",
          "name": "temperatures",
          "type": "string[]"
        },
        {
          "internalType": "uint256[]",
          "name": "timestamps",
          "type": "uint256[]"
        }
      ],
      "stateMutability": "view",
      "type": "function"
    },
    {
      "inputs": [],
      "name": "getTotalMedicines",
      "outputs": [
        {
          "internalType": "uint256",
          "name": "",
          "type": "uint256"
        }
      ],
      "stateMutability": "view",
      "type": "function"
    },
    {
      "inputs": [
        {
          "internalType": "uint256",
          "name": "medicineId",
          "type": "uint256"
        }
      ],
      "name": "isExpired",
      "outputs": [
        {
          "internalType": "bool",
          "name": "",
          "type": "bool"
        }
      ],
      "stateMutability": "view",
      "type": "function"
    },
    {
      "inputs": [
        {
          "internalType": "string",
          "name": "name",
          "type": "string"
        },
        {
          "internalType": "string",
          "name": "batchNumber",
          "type": "string"
        },
        {
          "internalType": "uint256",
          "name": "expiryDate",
          "type": "uint256"
        },
        {
          "internalType": "uint256",
          "name": "temperatureThreshold",
          "type": "uint256"
        },
        {
          "internalType": "bool",
          "name": "temperatureSensitive",
          "type": "bool"
        }
      ],
      "name": "manufactureMedicine",
      "outputs": [],
      "stateMutability": "nonpayable",
      "type": "function"
    },
    {
      "inputs": [
        {
          "internalType": "uint256",
          "name": "medicineId",
          "type": "uint256"
        }
      ],
      "name": "markAsExpired",
      "outputs": [],
      "stateMutability": "nonpayable",
      "type": "function"
    },
    {
      "inputs": [],
      "name": "medicineCounter",
      "outputs": [
        {
          "internalType": "uint256",
          "name": "",
          "type": "uint256"
        }
      ],
      "stateMutability": "view",
      "type": "function"
    },
    {
      "inputs": [
        {
          "internalType": "uint256",
          "name": "",
          "type": "uint256"
        }
      ],
      "name": "medicines",
      "outputs": [
        {
          "internalType": "uint256",
          "name": "id",
          "type": "uint256"
        },
        {
          "internalType": "string",
          "name": "name",
          "type": "string"
        },
        {
          "internalType": "string",
          "name": "batchNumber",
          "type": "string"
        },
        {
          "internalType": "uint256",
          "name": "manufactureDate",
          "type": "uint256"
        },
        {
          "internalType": "uint256",
          "name": "expiryDate",
          "type": "uint256"
        },
        {
          "internalType": "address",
          "name": "manufacturer",
          "type": "address"
        },
        {
          "internalType": "address",
          "name": "currentOwner",
          "type": "address"
        },
        {
          "internalType": "enum MedicineSupplyChain.MedicineStatus",
          "name": "status",
          "type": "uint8"
        },
        {
          "internalType": "uint256",
          "name": "temperatureThreshold",
          "type": "uint256"
        },
        {
          "internalType": "bool",
          "name": "temperatureSensitive",
          "type": "bool"
        },
        {
          "internalType": "bool",
          "name": "isActive",
          "type": "bool"
        }
      ],
      "stateMutability": "view",
      "type": "function"
    },
    {
      "inputs": [
        {
          "internalType": "uint256",
          "name": "medicineId",
          "type": "uint256"
        },
        {
          "internalType": "string",
          "name": "reason",
          "type": "string"
        }
      ],
      "name": "recallMedicine",
      "outputs": [],
      "stateMutability": "nonpayable",
      "type": "function"
    },
    {
      "inputs": [
        {
          "internalType": "uint256",
          "name": "medicineId",
          "type": "uint256"
        },
        {
          "internalType": "address",
          "name": "to",
          "type": "address"
        },
        {
          "internalType": "enum MedicineSupplyChain.MedicineStatus",
          "name": "newStatus",
          "type": "uint8"
        },
        {
          "internalType": "string",
          "name": "location",
          "type": "string"
        }
      ],
      "name": "transferMedicine",
      "outputs": [],
      "stateMutability": "nonpayable",
      "type": "function"
    },
    {
      "inputs": [
        {
          "internalType": "uint256",
          "name": "medicineId",
          "type": "uint256"
        },
        {
          "internalType": "string",
          "name": "location",
          "type": "string"
        }
      ],
      "name": "updateLocation",
      "outputs": [],
      "stateMutability": "nonpayable",
      "type": "function"
    },
    {
      "inputs": [
        {
          "internalType": "uint256",
          "name": "medicineId",
          "type": "uint256"
        },
        {
          "internalType": "string",
          "name": "temperature",
          "type": "string"
        }
      ],
      "name": "updateTemperature",
      "outputs": [],
      "stateMutability": "nonpayable",
      "type": "function"
    }
  ],
  "bytecode": "0x60806040523480156200001157600080fd5b50604051620028a8380380620028a883398101604081905262000034916200005a565b600080546001600160a01b0319166001600160a01b03929092169190911790556200008c565b6000602082840312156200006d57600080fd5b81516001600160a01b03811681146200008557600080fd5b9392505050565b61280c806200009c6000396000f3fe608060405234801561001057600080fd5b50600436106101005760003560e01c8063904639c411610097578063d1e189b411610066578063d1e189b41461023c578063d3a6bc681461024f578063d9548e5314610262578063dc8fdd8a1461028557600080fd5b8063904639c4146101d6578063a6742265146101e9578063ac859a4b14610209578063c85e766d1461021257600080fd5b806356498745116100d3578063564987451461017e5780636ba6d7a4146101915780637ac931c1146101b157806390173a75146101c357600080fd5b806312ea90cd1461010557806313007d551461011a578063142d95701461014a5780634ec0c9e91461016b575b600080fd5b610118610113366004611f2b565b610298565b005b60005461012d906001600160a01b031681565b6040516001600160a01b0390911681526020015b60405180910390f35b61015d610158366004611f72565b61045d565b604051610141929190612016565b610118610179366004611f2b565b6105d7565b61015d61018c366004611f72565b6107b5565b6101a461019f36600461208c565b6108cd565b60405161014191906120c9565b6003545b604051908152602001610141565b6101186101d1366004611f72565b61093d565b6101186101e4366004611f2b565b610b02565b6101fc6101f7366004611f72565b610cf2565b6040516101419190612162565b6101b560035481565b610225610220366004611f72565b61117f565b6040516101419b9a999897969594939291906122c4565b61011861024a36600461235d565b6112fb565b61011861025d3660046123e9565b6117ee565b610275610270366004611f72565b611b92565b6040519015158152602001610141565b6101b5610293366004612465565b611bde565b6000828152600160205260409020600d0154829060ff166102d45760405162461bcd60e51b81526004016102cb906124aa565b60405180910390fd5b6000546040516395a8c58d60e01b81526001916001600160a01b0316906395a8c58d9061030790339085906004016124f6565b602060405180830381865afa158015610324573d6000803e3d6000fd5b505050506040513d601f19601f820116820180604052508101906103489190612523565b6103645760405162461bcd60e51b81526004016102cb90612540565b6000848152600160205260409020600501546001600160a01b031633146103e75760405162461bcd60e51b815260206004820152603160248201527f4d65646963696e65537570706c79436861696e3a206f6e6c79206d616e75666160448201527018dd1d5c995c8818d85b881c9958d85b1b607a1b60648201526084016102cb565b60008481526001602052604090206006018054600160a01b80820460ff1692600792909160ff60a01b1990911690830217905550847f8112805a81174dab0d3c9aa31d9f47c0038d62684d38c1508d6ae71978f3df6c82600760405161044e92919061259d565b60405180910390a25050505050565b6000818152600160205260409020600d01546060908190839060ff166104955760405162461bcd60e51b81526004016102cb906124aa565b6000848152600160209081526040808320600b810180548351818602810186019094528084529094600c9092019385929084015b828210156105755783829060005260206000200180546104e8906125b8565b80601f0160208091040260200160405190810160405280929190818152602001828054610514906125b8565b80156105615780601f1061053657610100808354040283529160200191610561565b820191906000526020600020905b81548152906001019060200180831161054457829003601f168201915b5050505050815260200190600101906104c9565b505050509150808054806020026020016040519081016040528092919081815260200182805480156105c657602002820191906000526020600020905b8154815260200190600101908083116105b2575b505050505090509250925050915091565b6000828152600160205260409020600d0154829060ff1661060a5760405162461bcd60e51b81526004016102cb906124aa565b60008381526001602052604090206006015483906001600160a01b03163314806106a357506000546040516395a8c58d60e01b81526001600160a01b03909116906395a8c58d906106629033906005906004016124f6565b602060405180830381865afa15801561067f573d6000803e3d6000fd5b505050506040513d601f19601f820116820180604052508101906106a39190612523565b6106bf5760405162461bcd60e51b81526004016102cb906125ec565b60008351116107265760405162461bcd60e51b815260206004820152602d60248201527f4d65646963696e65537570706c79436861696e3a206c6f636174696f6e20636160448201526c6e6e6f7420626520656d70747960981b60648201526084016102cb565b60008481526001602081815260408320600b0180549283018155835290912001610750848261267e565b506000848152600160208181526040808420600c018054938401815584529220429101819055905185917f08c1aa8a3ded74821ab8fe6981a7dd0f9ebb0c3fcef9196f34b9f4e9d0e4edcd916107a791879161273e565b60405180910390a250505050565b6000818152600160205260409020600d01546060908190839060ff166107ed5760405162461bcd60e51b81526004016102cb906124aa565b60008481526001602090815260408083206009810180548351818602810186019094528084529094600a9092019385929084015b82821015610575578382906000526020600020018054610840906125b8565b80601f016020809104026020016040519081016040528092919081815260200182805461086c906125b8565b80156108b95780601f1061088e576101008083540402835291602001916108b9565b820191906000526020600020905b81548152906001019060200180831161089c57829003601f168201915b505050505081526020019060010190610821565b60606002826040516108df9190612760565b908152604080519182900360209081018320805480830285018301909352828452919083018282801561093157602002820191906000526020600020905b81548152602001906001019080831161091d575b50505050509050919050565b6000818152600160205260409020600d0154819060ff166109705760405162461bcd60e51b81526004016102cb906124aa565b60008281526001602052604090206006015482906001600160a01b0316331480610a0957506000546040516395a8c58d60e01b81526001600160a01b03909116906395a8c58d906109c89033906005906004016124f6565b602060405180830381865afa1580156109e5573d6000803e3d6000fd5b505050506040513d601f19601f82011682018060405250810190610a099190612523565b610a255760405162461bcd60e51b81526004016102cb906125ec565b6000838152600160205260409020600401544211610a9e5760405162461bcd60e51b815260206004820152603060248201527f4d65646963696e65537570706c79436861696e3a206d65646963696e6520697360448201526f081b9bdd08195e1c1a5c9959081e595d60821b60648201526084016102cb565b600083815260016020526040902060069081018054600160a01b80820460ff1693929160ff60a01b191690830217905550837f8112805a81174dab0d3c9aa31d9f47c0038d62684d38c1508d6ae71978f3df6c8260066040516107a792919061259d565b6000828152600160205260409020600d0154829060ff16610b355760405162461bcd60e51b81526004016102cb906124aa565b60008381526001602052604090206006015483906001600160a01b0316331480610bce57506000546040516395a8c58d60e01b81526001600160a01b03909116906395a8c58d90610b8d9033906005906004016124f6565b602060405180830381865afa158015610baa573d6000803e3d6000fd5b505050506040513d601f19601f82011682018060405250810190610bce9190612523565b610bea5760405162461bcd60e51b81526004016102cb906125ec565b60008481526001602052604090206008015460ff16610c715760405162461bcd60e51b815260206004820152603a60248201527f4d65646963696e65537570706c79436861696e3a206d65646963696e6520697360448201527f206e6f742074656d70657261747572652073656e73697469766500000000000060648201526084016102cb565b6000848152600160208181526040832060090180549283018155835290912001610c9b848261267e565b506000848152600160208181526040808420600a018054938401815584529220429101819055905185917feb1c2ea71667df1f7cfac99d30a75d39c1c59f0daa5add27bfd03254720eb8d6916107a791879161273e565b610cfa611cdf565b6000828152600160205260409020600d0154829060ff16610d2d5760405162461bcd60e51b81526004016102cb906124aa565b60008381526001602081815260409283902083516101e0810190945280548452918201805491840191610d5f906125b8565b80601f0160208091040260200160405190810160405280929190818152602001828054610d8b906125b8565b8015610dd85780601f10610dad57610100808354040283529160200191610dd8565b820191906000526020600020905b815481529060010190602001808311610dbb57829003601f168201915b50505050508152602001600282018054610df1906125b8565b80601f0160208091040260200160405190810160405280929190818152602001828054610e1d906125b8565b8015610e6a5780601f10610e3f57610100808354040283529160200191610e6a565b820191906000526020600020905b815481529060010190602001808311610e4d57829003601f168201915b5050509183525050600382015460208201526004820154604082015260058201546001600160a01b0390811660608301526006830154908116608083015260a090910190600160a01b900460ff166007811115610ec957610ec96120e3565b6007811115610eda57610eda6120e3565b8152602001600782015481526020016008820160009054906101000a900460ff1615151515815260200160098201805480602002602001604051908101604052809291908181526020016000905b82821015610fd4578382906000526020600020018054610f47906125b8565b80601f0160208091040260200160405190810160405280929190818152602001828054610f73906125b8565b8015610fc05780601f10610f9557610100808354040283529160200191610fc0565b820191906000526020600020905b815481529060010190602001808311610fa357829003601f168201915b505050505081526020019060010190610f28565b505050508152602001600a820180548060200260200160405190810160405280929190818152602001828054801561102b57602002820191906000526020600020905b815481526020019060010190808311611017575b50505050508152602001600b8201805480602002602001604051908101604052809291908181526020016000905b82821015611105578382906000526020600020018054611078906125b8565b80601f01602080910402602001604051908101604052809291908181526020018280546110a4906125b8565b80156110f15780601f106110c6576101008083540402835291602001916110f1565b820191906000526020600020905b8154815290600101906020018083116110d457829003601f168201915b505050505081526020019060010190611059565b505050508152602001600c820180548060200260200160405190810160405280929190818152602001828054801561115c57602002820191906000526020600020905b815481526020019060010190808311611148575b5050509183525050600d919091015460ff16151560209091015291505b50919050565b6001602081905260009182526040909120805491810180546111a0906125b8565b80601f01602080910402602001604051908101604052809291908181526020018280546111cc906125b8565b80156112195780601f106111ee57610100808354040283529160200191611219565b820191906000526020600020905b8154815290600101906020018083116111fc57829003601f168201915b50505050509080600201805461122e906125b8565b80601f016020809104026020016040519081016040528092919081815260200182805461125a906125b8565b80156112a75780601f1061127c576101008083540402835291602001916112a7565b820191906000526020600020905b81548152906001019060200180831161128a57829003601f168201915b505050600384015460048501546005860154600687015460078801546008890154600d90990154979894979396506001600160a01b0392831695509181169360ff600160a01b90920482169390821691168b565b6000546040516395a8c58d60e01b81526001916001600160a01b0316906395a8c58d9061132e90339085906004016124f6565b602060405180830381865afa15801561134b573d6000803e3d6000fd5b505050506040513d601f19601f8201168201806040525081019061136f9190612523565b61138b5760405162461bcd60e51b81526004016102cb90612540565b60008651116113ee5760405162461bcd60e51b815260206004820152602960248201527f4d65646963696e65537570706c79436861696e3a206e616d652063616e6e6f7460448201526820626520656d70747960b81b60648201526084016102cb565b60008551116114595760405162461bcd60e51b815260206004820152603160248201527f4d65646963696e65537570706c79436861696e3a206261746368206e756d6265604482015270722063616e6e6f7420626520656d70747960781b60648201526084016102cb565b4284116114c35760405162461bcd60e51b815260206004820152603260248201527f4d65646963696e65537570706c79436861696e3a206578706972792064617465604482015271206d75737420626520696e2066757475726560701b60648201526084016102cb565b600380549060006114d38361277c565b9091555050600354604080516101e08101825282815260208101899052908101879052426060820152608081018690523360a0820181905260c082015260e0810160008152602081018690528415156040820152606001600060405190808252806020026020018201604052801561155f57816020015b606081526020019060019003908161154a5790505b5081526020016000604051908082528060200260200182016040528015611590578160200160208202803683370190505b50815260200160006040519080825280602002602001820160405280156115cb57816020015b60608152602001906001900390816115b65790505b50815260200160006040519080825280602002602001820160405280156115fc578160200160208202803683370190505b5081526001602091820181905260008481528183526040902083518155918301519082019061162b908261267e565b5060408201516002820190611640908261267e565b50606082015160038201556080820151600482015560a08201516005820180546001600160a01b03199081166001600160a01b039384161790915560c084015160068401805492831691909316908117835560e085015192916001600160a81b03191617600160a01b8360078111156116bb576116bb6120e3565b0217905550610100820151600782015561012082015160088201805460ff19169115159190911790556101408201518051611700916009840191602090910190611d7c565b50610160820151805161171d91600a840191602090910190611dd2565b50610180820151805161173a91600b840191602090910190611d7c565b506101a0820151805161175791600c840191602090910190611dd2565b506101c09190910151600d909101805460ff1916911515919091179055604051600290611785908890612760565b90815260405190819003602090810182208054600181018255600091825291902001829055339082907f423ae0aee6006c86eec0721052a3e8bdcf2824c5bad57834814e3a9ac1a37b96906117dd908b908b906127a3565b60405180910390a350505050505050565b6000848152600160205260409020600d0154849060ff166118215760405162461bcd60e51b81526004016102cb906124aa565b60008581526001602052604090206006015485906001600160a01b03163314806118ba57506000546040516395a8c58d60e01b81526001600160a01b03909116906395a8c58d906118799033906005906004016124f6565b602060405180830381865afa158015611896573d6000803e3d6000fd5b505050506040513d601f19601f820116820180604052508101906118ba9190612523565b6118d65760405162461bcd60e51b81526004016102cb906125ec565b6001600160a01b0385166119495760405162461bcd60e51b815260206004820152603460248201527f4d65646963696e65537570706c79436861696e3a2063616e6e6f74207472616e6044820152737366657220746f207a65726f206164647265737360601b60648201526084016102cb565b6000868152600160205260409020600601546001600160a01b03908116908616036119cb5760405162461bcd60e51b815260206004820152602c60248201527f4d65646963696e65537570706c79436861696e3a2063616e6e6f74207472616e60448201526b39b332b9103a379039b2b63360a11b60648201526084016102cb565b6000868152600160205260409020600601546119f190600160a01b900460ff1685611c1e565b611a545760405162461bcd60e51b815260206004820152602e60248201527f4d65646963696e65537570706c79436861696e3a20696e76616c69642073746160448201526d3a3ab9903a3930b739b4ba34b7b760911b60648201526084016102cb565b600086815260016020526040902060060180546001600160a01b031981166001600160a01b038881169182178455821692600160a01b80840460ff169389936001600160a81b03199091161790836007811115611ab357611ab36120e3565b021790555060008881526001602081815260408320600b0180549283018155835290912001611ae2868261267e565b506000888152600160208181526040808420600c01805493840181558452922042910155516001600160a01b0380891691908416908a907f8e5a6b755a85f8665fba0aadd1657494e5c878a67877534e7c7319143f4a0b2790611b46908b906127c8565b60405180910390a4877f8112805a81174dab0d3c9aa31d9f47c0038d62684d38c1508d6ae71978f3df6c8288604051611b8092919061259d565b60405180910390a25050505050505050565b6000818152600160205260408120600d0154829060ff16611bc55760405162461bcd60e51b81526004016102cb906124aa565b5050600090815260016020526040902060040154421190565b81516020818401810180516002825292820191850191909120919052805482908110611c0957600080fd5b90600052602060002001600091509150505481565b600080836007811115611c3357611c336120e3565b03611c555760015b826007811115611c4d57611c4d6120e3565b149050611cd9565b6001836007811115611c6957611c696120e3565b03611c75576002611c3b565b6002836007811115611c8957611c896120e3565b03611c95576003611c3b565b6003836007811115611ca957611ca96120e3565b03611cb5576004611c3b565b6004836007811115611cc957611cc96120e3565b03611cd5576005611c3b565b5060005b92915050565b604051806101e00160405280600081526020016060815260200160608152602001600081526020016000815260200160006001600160a01b0316815260200160006001600160a01b0316815260200160006007811115611d4157611d416120e3565b815260200160008152602001600015158152602001606081526020016060815260200160608152602001606081526020016000151581525090565b828054828255906000526020600020908101928215611dc2579160200282015b82811115611dc25782518290611db2908261267e565b5091602001919060010190611d9c565b50611dce929150611e19565b5090565b828054828255906000526020600020908101928215611e0d579160200282015b82811115611e0d578251825591602001919060010190611df2565b50611dce929150611e36565b80821115611dce576000611e2d8282611e4b565b50600101611e19565b5b80821115611dce5760008155600101611e37565b508054611e57906125b8565b6000825580601f10611e67575050565b601f016020900490600052602060002090810190611e859190611e36565b50565b634e487b7160e01b600052604160045260246000fd5b600082601f830112611eaf57600080fd5b813567ffffffffffffffff80821115611eca57611eca611e88565b604051601f8301601f19908116603f01168101908282118183101715611ef257611ef2611e88565b81604052838152866020858801011115611f0b57600080fd5b836020870160208301376000602085830101528094505050505092915050565b60008060408385031215611f3e57600080fd5b82359150602083013567ffffffffffffffff811115611f5c57600080fd5b611f6885828601611e9e565b9150509250929050565b600060208284031215611f8457600080fd5b5035919050565b60005b83811015611fa6578181015183820152602001611f8e565b50506000910152565b60008151808452611fc7816020860160208601611f8b565b601f01601f19169290920160200192915050565b600081518084526020808501945080840160005b8381101561200b57815187529582019590820190600101611fef565b509495945050505050565b6000604082016040835280855180835260608501915060608160051b8601019250602080880160005b8381101561206d57605f1988870301855261205b868351611faf565b9550938201939082019060010161203f565b5050858403818701525050506120838185611fdb565b95945050505050565b60006020828403121561209e57600080fd5b813567ffffffffffffffff8111156120b557600080fd5b6120c184828501611e9e565b949350505050565b6020815260006120dc6020830184611fdb565b9392505050565b634e487b7160e01b600052602160045260246000fd5b60088110612109576121096120e3565b9052565b600081518084526020808501808196508360051b8101915082860160005b85811015612155578284038952612143848351611faf565b9885019893509084019060010161212b565b5091979650505050505050565b6020815281516020820152600060208301516101e080604085015261218b610200850183611faf565b91506040850151601f19808685030160608701526121a98483611faf565b935060608701516080870152608087015160a087015260a087015191506121db60c08701836001600160a01b03169052565b60c08701516001600160a01b03811660e0880152915060e08701519150610100612207818801846120f9565b8701516101208781019190915287015191506101406122298188018415159052565b80880151925050610160818786030181880152612246858461210d565b9450808801519250506101808187860301818801526122658584611fdb565b9450808801519250506101a0818786030181880152612284858461210d565b9450808801519250506101c08187860301818801526122a38584611fdb565b945080880151925050506122ba8286018215159052565b5090949350505050565b60006101608d83528060208401526122de8184018e611faf565b905082810360408401526122f2818d611faf565b606084018c9052608084018b90526001600160a01b038a811660a0860152891660c08501529150612328905060e08301876120f9565b61010082019490945291151561012083015215156101409091015298975050505050505050565b8015158114611e8557600080fd5b600080600080600060a0868803121561237557600080fd5b853567ffffffffffffffff8082111561238d57600080fd5b61239989838a01611e9e565b965060208801359150808211156123af57600080fd5b506123bc88828901611e9e565b945050604086013592506060860135915060808601356123db8161234f565b809150509295509295909350565b600080600080608085870312156123ff57600080fd5b8435935060208501356001600160a01b038116811461241d57600080fd5b925060408501356008811061243157600080fd5b9150606085013567ffffffffffffffff81111561244d57600080fd5b61245987828801611e9e565b91505092959194509250565b6000806040838503121561247857600080fd5b823567ffffffffffffffff81111561248f57600080fd5b61249b85828601611e9e565b95602094909401359450505050565b6020808252602c908201527f4d65646963696e65537570706c79436861696e3a206d65646963696e6520646f60408201526b195cc81b9bdd08195e1a5cdd60a21b606082015260800190565b6001600160a01b03831681526040810160068310612516576125166120e3565b8260208301529392505050565b60006020828403121561253557600080fd5b81516120dc8161234f565b60208082526038908201527f4d65646963696e65537570706c79436861696e3a206163636f756e7420646f6560408201527f73206e6f74206861766520726571756972656420726f6c650000000000000000606082015260800190565b604081016125ab82856120f9565b6120dc60208301846120f9565b600181811c908216806125cc57607f821691505b60208210810361117957634e487b7160e01b600052602260045260246000fd5b60208082526023908201527f4d65646963696e65537570706c79436861696e3a206e6f7420617574686f72696040820152621e995960ea1b606082015260800190565b601f82111561267957600081815260208120601f850160051c810160208610156126565750805b601f850160051c820191505b8181101561267557828155600101612662565b5050505b505050565b815167ffffffffffffffff81111561269857612698611e88565b6126ac816126a684546125b8565b8461262f565b602080601f8311600181146126e157600084156126c95750858301515b600019600386901b1c1916600185901b178555612675565b600085815260208120601f198616915b82811015612710578886015182559484019460019091019084016126f1565b508582101561272e5787850151600019600388901b60f8161c191681555b5050505050600190811b01905550565b6040815260006127516040830185611faf565b90508260208301529392505050565b60008251612772818460208701611f8b565b9190910192915050565b60006001820161279c57634e487b7160e01b600052601160045260246000fd5b5060010190565b6040815260006127b66040830185611faf565b82810360208401526120838185611faf565b60208101611cd982846120f956fea264697066735822122047a295b7522ad417fd9fcba5401da139a1d0d48690baf058fcf6a9f6f6785b6564736f6c63430008130033",
  "linkReferences": {},
  "deployedLinkReferences": {}
}