{
  "_format": "hh-sol-artifact-1",
  "contractName": "AccessControl",
  "sourceName": "contracts/AccessControl.sol",
  "abi": [
    {
      "inputs": [],
      "stateMutability": "nonpayable",
      "type": "constructor"
    },
    {
      "anonymous": false,
      "inputs": [
        {
          "indexed": true,
          "internalType": "address",
          "name": "account",
          "type": "address"
        },
        {
          "indexed": false,
          "internalType": "enum AccessControl.Role",
          "name": "role",
          "type": "uint8"
        }
      ],
      "name": "RoleGranted",
      "type": "event"
    },
    {
      "anonymous": false,
      "inputs": [
        {
          "indexed": true,
          "internalType": "address",
          "name": "account",
          "type": "address"
        },
        {
          "indexed": false,
          "internalType": "enum AccessControl.Role",
          "name": "role",
          "type": "uint8"
        }
      ],
      "name": "RoleRevoked",
      "type": "event"
    },
    {
      "inputs": [
        {
          "internalType": "address",
          "name": "account",
          "type": "address"
        }
      ],
      "name": "getRole",
      "outputs": [
        {
          "internalType": "enum AccessControl.Role",
          "name": "",
          "type": "uint8"
        }
      ],
      "stateMutability": "view",
      "type": "function"
    },
    {
      "inputs": [
        {
          "internalType": "address",
          "name": "account",
          "type": "address"
        },
        {
          "internalType": "enum AccessControl.Role",
          "name": "role",
          "type": "uint8"
        }
      ],
      "name": "grantRole",
      "outputs": [],
      "stateMutability": "nonpayable",
      "type": "function"
    },
    {
      "inputs": [
        {
          "internalType": "address",
          "name": "account",
          "type": "address"
        },
        {
          "internalType": "enum AccessControl.Role",
          "name": "role",
          "type": "uint8"
        }
      ],
      "name": "hasRole",
      "outputs": [
        {
          "internalType": "bool",
          "name": "",
          "type": "bool"
        }
      ],
      "stateMutability": "view",
      "type": "function"
    },
    {
      "inputs": [
        {
          "internalType": "address",
          "name": "account",
          "type": "address"
        }
      ],
      "name": "revokeRole",
      "outputs": [],
      "stateMutability": "nonpayable",
      "type": "function"
    },
    {
      "inputs": [
        {
          "internalType": "enum AccessControl.Role",
          "name": "",
          "type": "uint8"
        }
      ],
      "name": "roleExists",
      "outputs": [
        {
          "internalType": "bool",
          "name": "",
          "type": "bool"
        }
      ],
      "stateMutability": "view",
      "type": "function"
    },
    {
      "inputs": [
        {
          "internalType": "address",
          "name": "",
          "type": "address"
        }
      ],
      "name": "roles",
      "outputs": [
        {
          "internalType": "enum AccessControl.Role",
          "name": "",
          "type": "uint8"
        }
      ],
      "stateMutability": "view",
      "type": "function"
    }
  ],
  "bytecode": "0x608060405234801561001057600080fd5b50336000818152602081815260408083208054600560ff199182168117909255938190526001928390527fe2689cd4a84e23ad2f564004f1c9013e9589d260bde6380aba3ca7e09e4df40c805490941690921790925590517faa259565575c834bc07e74dca784b4071676133ac78513b431afb6ee7edae12191610093916100a0565b60405180910390a26100c8565b60208101600683106100c257634e487b7160e01b600052602160045260246000fd5b91905290565b610610806100d76000396000f3fe608060405234801561001057600080fd5b50600436106100625760003560e01c80633e84023614610067578063442767331461007c578063765b0fa0146100be57806380e52e3f146100f157806395a8c58d146101045780639937464214610117575b600080fd5b61007a6100753660046104a3565b61013a565b005b6100a861008a3660046104d6565b6001600160a01b031660009081526020819052604090205460ff1690565b6040516100b5919061050e565b60405180910390f35b6100e16100cc366004610536565b60016020526000908152604090205460ff1681565b60405190151581526020016100b5565b61007a6100ff3660046104d6565b6102e7565b6100e16101123660046104a3565b61042f565b6100a86101253660046104d6565b60006020819052908152604090205460ff1681565b60053360009081526020819052604090205460ff166005811115610160576101606104f8565b146101865760405162461bcd60e51b815260040161017d90610551565b60405180910390fd5b6001600160a01b0382166101ac5760405162461bcd60e51b815260040161017d90610594565b60008160058111156101c0576101c06104f8565b0361021b5760405162461bcd60e51b815260206004820152602560248201527f416363657373436f6e74726f6c3a2063616e6e6f74206772616e74204e4f4e4560448201526420726f6c6560d81b606482015260840161017d565b6001600160a01b0382166000908152602081905260409020805482919060ff19166001836005811115610250576102506104f8565b0217905550600180600083600581111561026c5761026c6104f8565b600581111561027d5761027d6104f8565b815260200190815260200160002060006101000a81548160ff021916908315150217905550816001600160a01b03167faa259565575c834bc07e74dca784b4071676133ac78513b431afb6ee7edae121826040516102db919061050e565b60405180910390a25050565b60053360009081526020819052604090205460ff16600581111561030d5761030d6104f8565b1461032a5760405162461bcd60e51b815260040161017d90610551565b6001600160a01b0381166103505760405162461bcd60e51b815260040161017d90610594565b6001600160a01b03811660009081526020819052604081205460ff16600581111561037d5761037d6104f8565b036103d55760405162461bcd60e51b815260206004820152602260248201527f416363657373436f6e74726f6c3a206163636f756e7420686173206e6f20726f6044820152616c6560f01b606482015260840161017d565b6001600160a01b03811660008181526020819052604090819020805460ff198116909155905160ff90911691907f34a1009b84e077aee5bc8197faf7105e54f9ba6879e2a51a716e4156ea9ad769906102db90849061050e565b6000816005811115610443576104436104f8565b6001600160a01b03841660009081526020819052604090205460ff166005811115610470576104706104f8565b149392505050565b80356001600160a01b038116811461048f57600080fd5b919050565b80356006811061048f57600080fd5b600080604083850312156104b657600080fd5b6104bf83610478565b91506104cd60208401610494565b90509250929050565b6000602082840312156104e857600080fd5b6104f182610478565b9392505050565b634e487b7160e01b600052602160045260246000fd5b602081016006831061053057634e487b7160e01b600052602160045260246000fd5b91905290565b60006020828403121561054857600080fd5b6104f182610494565b60208082526023908201527f416363657373436f6e74726f6c3a206163636f756e74206973206e6f7420616460408201526236b4b760e91b606082015260800190565b60208082526026908201527f416363657373436f6e74726f6c3a206163636f756e74206973207a65726f206160408201526564647265737360d01b60608201526080019056fea26469706673582212202235927dff2a7ae2ebaaba56c00bc4cc9270a55a73d7e51eb32c1474ddba73da64736f6c63430008130033",
  "linkReferences": {},
  "deployedLinkReferences": {}
}